:100000000C94DD040C940E050C940E050C940E0556
:100010000C940E050C940E050C940E050C940E0514
:100020000C940E050C940E050C940E050C940E0504
:100030000C940E050C940E050C940E050C940E05F4
:100040000C940E050C9431140C940E050C940E05B2
:100050000C940E050C940E050C940E050C94D911FD
:100060000C940E050C944D120C9423120C940E0556
:100070000C940E050C940E050C940E050C940E05B4
:100080000C9403140C940E050C940E050C940E05A0
:100090000C940E050C940E050C940E050C94831212
:1000A0000C940E050C940E050C94D5130C940E05AF
:1000B0000C940E050C940E050C940E050C94A713CD
:1000C0000C940E050C940E050C940E050C940E0564
:1000D0000C940E050C940E050C940E050C940E0554
:1000E0000C940E050C9464060C9490070C94730DFC
:1000F0000C949B060C9489060C9438100C940F09F0
:100100000C94120C0C9468060C9422090C94430A6B
:100110000C9496060C947C0C0C948D060C945F1435
:100120000C94FF080C94B40E0C9446080C947506BD
:100130000C9471060C94F9070C9429090C949706F9
:100140000C9400090C9491060C9483060C947B0685
:100150000C949F070C94B3070C9463070C946B06E4
:100160000C9460060C943F0A0C941D0B0C943710F1
:100170000C94FD080C94FE080C947F060C944C0F14
:100180000C9456090C945C060C940F100C945606B3
:100190000C94C10720FF01010000000000000000D6
:1001A0000000065F060000000000070000070000D6
:1001B00000147F14147F140000242A6B6B2A120091
:1001C0000046261008646200304A454D3248480017
:1001D0000000040300000000001C22410000000099
:1001E000000041221C000000082A1C1C1C2A0800D8
:1001F0000008083E080800000000806000000000C1
:10020000000808080808080000000060000000005E
:100210000040201008040200003E615149453E00A4
:100220000044427F4040000000625151494966004D
:100230000022414949493600101814527F501000DD
:100240000027454545453900003C4A4949493000A9
:100250000003017109050300003649494949360088
:100260000006494949291E00000000660000000000
:100270000000806600000000000814224100000019
:100280000024242424242400000000412214080017
:100290000002010151090600003E415D55551E0056
:1002A000007C121111127C0000417F49494936003F
:1002B000001C22414141220000417F4141221C009B
:1002C00000417F495D41630000417F491D010300FA
:1002D000001C224151517200007F080808087F006D
:1002E0000000417F4100000000304040413F0100DC
:1002F00000417F081422414000417F41404060009E
:10030000007F01020402017F007F010204087F00D8
:10031000001C224141221C0000417F4909090600BE
:10032000001E212131215E4000417F4919294600EC
:100330000026494949493200000301417F41010338
:10034000003F404040403F00000F10204020100F71
:10035000003F40403840403F0041221408142241F1
:100360000001024478440201004361514945436160
:10037000007F4141410000000102040810204000BC
:10038000004141417F00000008040201020408000E
:100390008080808080808080000000030400000056
:1003A000002054545454784000017F30484848306D
:1003B00000384444444428000030484848317F40D5
:1003C00000385454545418000000487E490102007B
:1003D0000098A4A4A4A4780400417F080404780031
:1003E0000000447D400000000060808080847D002B
:1003F00000017F10284440000000417F40000000C1
:10040000007C040478040478007C08040404780068
:1004100000384444444438000084FC9824241800E4
:100420000018242498FC840000447C48040418002C
:1004300000485454545424000004043F4444200011
:10044000003C404040207C00000C10204020100C5C
:10045000003C40403840403C004428102844000004
:10046000009CA0A0A0A07C00004464544C44000068
:10047000000808364141000000000077000000003D
:10048000000041413608080000020101020201009B
:100490000070484442444870000000000000000022
:1004A000000000000000000000000000000000004C
:1004B000000000000000000000000000000000003C
:1004C000000000000000000000000000000000002C
:1004D000000000000000000000000000000000001C
:1004E000000000000000000000000000000000000C
:1004F00000000000000000000000000000000000FC
:1005000000000000000000000000000000000000EB
:1005100000000000000000000000000000000000DB
:1005200000000000000000000000000000000000CB
:1005300000000000000000000000000000000000BB
:1005400000000000000000000000000000000000AB
:10055000000000000000000000000000000000009B
:10056000000000000000000000000000000000008B
:10057000000000000000000000000000000000007B
:10058000000000000000000000000000000000006B
:10059000000000000000000000000000000000005B
:1005A0000000007A0000000000182424E724240042
:1005B00000685E4941422000425A2424245A4200E5
:1005C0000015167C161500000000007700000000E2
:1005D00040DAA7A5E5590302000100000001000070
:1005E0007E8199A5A5817E0000262929292F280032
:1005F000000814220814220000080808080838001F
:1006000000080808080808007E81BD95A9817E00C1
:1006100001010101010101010006090906000000B4
:100620000044445F44440000001219151200000009
:10063000000A11150A00000000000002010000007D
:10064000807E1010100E10000609097F01017F0145
:10065000000000101000000000008080A04000009A
:1006600000121F1000000000002629292926000082
:1006700000221408221408004A2F1828342AFD20CA
:100680004A2F1888D4CAA9B095552A506854FA4000
:1006900000304845404020000179141212147800BF
:1006A000007814121214790100722925252972008C
:1006B00000791515151579000079141212147900B6
:1006C0000070282B2B287000007C0A09097F4949FB
:1006D000000E9191B1B14A0000457D545444000090
:1006E00000447C545545000002457D5555450200A7
:1006F00000457C54544500000001457C4400000046
:100700000000447C450100000201457D45010200D6
:100710000001447C4401000000497F4941221C0043
:10072000007A09112243780001192442422418005A
:100730000018244242241901122945454529120076
:100740000011294545452911001924424224190068
:1007500000221408142200003E7159494D473E0002
:10076000003D414040403C00003C404040413D0095
:10077000003A414141413A00003D404040403D0087
:10078000000448704805010000417F55141408001A
:10079000007E010149562000002055555478400044
:1007A0000020545455794000002255555579420097
:1007B0000021555555557940002154545478410035
:1007C0000020545554784000002054547838545434
:1007D000001824A4A4E440000038555554541800CF
:1007E0000038545455551800003A555555551A00BF
:1007F0000039545454541900000001457C40000055
:10080000000000447D4100000201457D41020000DE
:10081000000001447C41000000304A4A4B3E020087
:10082000007A09090A0A71000030494A4848300034
:10083000003048484A49300000304A49494A3000AF
:1008400000324A4A4A4A3200003248484848320098
:100850000008086B6B080800B84464544C443A0024
:10086000003841424040380000384040444238009F
:100870000038424141423800003A4040407A40004E
:100880000018A0A0A0A27A000081FFA424241800D0
:10089000001AA0A0A0A07A000000210024002700D8
:1008A0002A002D003000330001010000040107017F
:1008B0000A0100002200250028002B002E00310034
:1008C000340002010000050108010B0100002000B6
:1008D0002300260029002C002F0032000001000018
:1008E00003010601090105050505070508080808B3
:1008F000020202020A0A08080404040401010101B8
:1009000001010101030303030303030304070707B2
:100910000C0C0C0C0C0C0C0C020202020606060657
:10092000060606060B0B0B0B0B0B0B0B0102102024
:100930002008081020401020408002010201080415
:1009400002010102040810204080804020100804A9
:100950000201800402018040201008040201080402
:100960000201010204081020408001020408102046
:10097000408000000A0B02090C0D0E080703040159
:100980000000000000000000000000000000000067
:100990000000000000000000000000000000121134
:1009A0001000000000000000000000000000000037
:1009B00000000000000000005F1411241FBECFEFF4
:1009C000D1E2DEBFCDBF00E00CBF13E0A0E0B2E09B
:1009D000E2EFF9E300E00BBF02C007900D92A837E9
:1009E000B107D9F726E0A8E7B3E001C01D92A53012
:1009F000B207E1F714E0CDEDD4E000E006C02197A6
:100A00000109802FFE010E94B11BCC3DD10780E07F
:100A10000807A9F70E9441150C94F71C0C940000DC
:100A200080E008958F929F92AF92BF92CF92DF9213
:100A3000EF92FF928091000658E5C52E52E0D52E28
:100A4000C81AD10887FDD394CC0CDD1CCC0CDD1C5E
:100A50000D2C000CEE08FF088091FF0578E8872E2A
:100A6000912C881A910887FD9394880C991C880C06
:100A7000991C092C000CAA08BB088091FE058F3F29
:100A8000D1F190E0FC01EE0FFF1FE80FF91FEF5CC2
:100A9000FA4F8181928133E0880F991F3A95E1F7EF
:100AA000B0E0A0E044E0B595A795979587954A9565
:100AB000D1F702969C012F5F3F4F032E000C440B91
:100AC000550B281939094A095B09A4EBB0E00E94CB
:100AD0003D1BA7019601281939094A095B090E94A3
:100AE0001E1BC901FF90EF90DF90CF90BF90AF9099
:100AF0009F908F90089590E080E0DCCFCF92DF92BE
:100B0000EF92FF92DC01A03282E0B807D4F5A53B5A
:100B1000B10514F0A4EBB0E04091FF0528E830E007
:100B2000241B310947FD3395220F331F220F331F3A
:100B30006901330FEE08FF084091000628E532E016
:100B4000241B310947FD3395220F331F220F331F1A
:100B5000032E000C440B550B2C193D094E095F095F
:100B6000B7FF02C0B0E0A0E00E94481B24EB30E0D9
:100B700040E050E00E941E1BC20ED31EE41EF51E74
:100B8000D601E091FE05E03380F52091FF0588E86D
:100B900090E0821B910927FD9395880F991F880F7C
:100BA000991FA817B90784F02091000688E592E004
:100BB000821B910927FD9395880F991F880F991F14
:100BC000A817B9070CF4CD010297880F991F4FB7EA
:100BD000F8942E2F30E0F901EE0FFF1FE20FF31F04
:100BE000EF5CFA4F928381834FBFFF90EF90DF90CD
:100BF000CF900895CF93DF93CDB7DEB72D970FB683
:100C0000F894DEBF0FBECDBFFE01319698E0DF0144
:100C10001D929A95E9F7A091C605B091C705519626
:100C20009C915197891798F41C868D8781E08B875A
:100C3000FA87E987E091CA05F091CB059E01275F0D
:100C40003F4F50964C916FE086EC95E019952D96AC
:100C50000FB6F894DEBF0FBECDBFDF91CF910895E0
:100C60009B01DC011896ED91FC9141E067E119943C
:100C70008150823108F05AC0E82FF0E08827EC5B01
:100C8000F94F8F4F0C94B11B6406680656065C063C
:100C9000600696066B06710675067B067F06830660
:100CA00089068D069606910697069B068091800020
:100CB0008F77809380000895809180008F7DF9CF99
:100CC00080918000877FF5CF84B58F7784BD0895AC
:100CD00084B58F7DFBCF8091B0008F778093B0007B
:100CE00008958091B0008F7DF9CF809190008F772B
:100CF000809390000895809190008F7DF9CF80912E
:100D00009000877FF5CF8091A0008F778093A0001F
:100D100008958091A0008F7DF9CF8091A000877FFA
:100D2000F5CF809120018F778093200108958091E5
:100D300020018F7DF9CF80912001877FF5CFCF9360
:100D4000DF93282F30E0F901EE58F64F8491F90136
:100D5000E45DF64FD491F901EA51F74FC491CC23E9
:100D6000A1F081110E943806EC2FF0E0EE0FFF1F7A
:100D7000E453F74FA591B491EC91ED2381E090E01D
:100D800009F480E0DF91CF91089580E090E0FACF00
:100D90001F93CF93DF93282F30E0F901EE58F64FE1
:100DA0008491F901E45DF64FD491F901EA51F74FCE
:100DB000C491CC23A9F0162F81110E943806EC2F84
:100DC000F0E0EE0FFF1FEE54F74FA591B4918FB7EF
:100DD000F894EC91111108C0D095DE23DC938FBFFD
:100DE000DF91CF911F910895DE2BF8CFCF93DF9342
:100DF00090E0FC01E45DF64F24918A51974FFC018D
:100E000084918823C9F090E0880F991FFC01E8566F
:100E1000F74FA591B491FC01EE54F74FC591D491D1
:100E200061110DC09FB7F8948C91209582238C930B
:100E30008881282328839FBFDF91CF910895623056
:100E400051F49FB7F8943C91822F809583238C9323
:100E5000E8812E2BEFCF8FB7F894EC912E2B2C93AB
:100E60008FBFEACF3FB7F8948091840490918504B6
:100E7000A0918604B091870426B5A89B05C02F3F9A
:100E800019F00196A11DB11D3FBFBA2FA92F982FB0
:100E90008827BC01CD01620F711D811D911D42E0AB
:100EA000660F771F881F991F4A95D1F708952FB7AE
:100EB000F8946091800470918104809182049091F3
:100EC00083042FBF0895AF92BF92CF92DF92EF922B
:100ED000FF920F931F93CF93DF936C017B018B01E4
:100EE000040F151FEB015E01AE18BF08C017D10734
:100EF00059F06991D601ED91FC910190F081E02DBE
:100F0000C6011995892B79F7C501DF91CF911F9102
:100F10000F91FF90EF90DF90CF90BF90AF9008952A
:100F2000FC01538D448D252F30E0842F90E0821BEF
:100F3000930B541710F0CF96089501970895FC0174
:100F4000918D828D981761F0A28DAE0FBF2FB11DCC
:100F50005D968C91928D9F5F9F73928F90E0089524
:100F60008FEF9FEF0895FC01918D828D981731F0DE
:100F7000828DE80FF11D858D90E008958FEF9FEF32
:100F80000895FC01918D228D892F90E0805C9F4F08
:100F9000821B91098F739927089588E894E00E9435
:100FA000C10721E0892B09F420E0822F0895FC017C
:100FB000A48DA80FB92FB11DA35ABF4F2C91848DBA
:100FC00090E001968F739927848FA689B7892C9317
:100FD000A089B1898C91837080648C93938D848D6A
:100FE000981306C00288F389E02D80818F7D80836D
:100FF0000895EF92FF920F931F93CF93DF93EC012D
:1010000081E0888F9B8D8C8D98131AC0E889F989AF
:10101000808185FF15C09FB7F894EE89FF896083B2
:10102000E889F98980818370806480839FBF81E033
:1010300090E0DF91CF911F910F91FF90EF90089575
:10104000F62E0B8D10E00F5F1F4F0F731127E02E50
:101050008C8D8E110CC00FB607FCFACFE889F98988
:10106000808185FFF5CFCE010E94D707F1CFEB8DB0
:10107000EC0FFD2FF11DE35AFF4FF0829FB7F8945C
:101080000B8FEA89FB8980818062CFCFCF93DF937A
:10109000EC01888D8823B9F0AA89BB89E889F98990
:1010A0008C9185FD03C0808186FD0DC00FB607FCC5
:1010B000F7CF8C9185FFF2CF808185FFEDCFCE01F8
:1010C0000E94D707E9CFDF91CF91089580E090E0AB
:1010D000892B29F00E94CD0781110E94000080E039
:1010E00090E0892B49F080E090E0892B29F00E9464
:1010F000000081110E94000080E090E0892B49F0FF
:1011000080E090E0892B29F00E94000081110E946C
:10111000000080E090E0892B49F080E090E0892B8E
:1011200029F00E94000081110C9400000895209184
:101130000F04260F3327331F21323105ECF42091A1
:101140003504FC0190E080E0243069F082E00895ED
:10115000A0910F042191AC0143515C4FA40FB52F16
:10116000B11D2C930196861798F380910F04680F98
:1011700060930F0480E0089581E008951092350493
:1011800081E0809337041092360461E084E10E948C
:10119000C80661E085E10E94C806E9EBF0E08081C5
:1011A0008E7F808380818D7F808388E48093B800E8
:1011B00085E48093BC000895CF93DF9391E09093F2
:1011C000EC038823B9F0C091B800D091BA008091A7
:1011D000BC008A7B8093BC0060E084E10E94C8066A
:1011E00060E085E10E94C8060E94BE08D093BA0064
:1011F000C093B800DF91CF910895089508950895A0
:10120000E091E4038091E303E81730F4F0E0ED535C
:10121000FC4F808190E008958FEF9FEF08959091AB
:10122000E4038091E3032FEF3FEF981748F4E92F91
:10123000F0E0ED53FC4F208130E09F5F9093E4039A
:10124000C90108958091E3039091E403891B990BF0
:101250000895CF92DF92EF92FF920F931F93CF9357
:10126000DF937C01CB018A012091C203222389F004
:10127000EB016B01C40ED51ECC15DD0569F069913B
:10128000D701ED91FC910190F081E02DC7011995F6
:10129000F3CF642F0E949708C801DF91CF911F916F
:1012A0000F91FF90EF90DF90CF900895CF93DF9351
:1012B0001F92CDB7DEB769832091C2032223F9F0D4
:1012C0002091E503203258F021E030E0FC01338327
:1012D000228390E080E00F90DF91CF91089580917C
:1012E000E603E82FF0E0EE55FC4F998190838F5F85
:1012F0008093E6038093E50381E090E0ECCF61E02A
:10130000CE0101960E949708F7CFAF92BF92CF927D
:10131000DF92EF92FF920F931F93CF93DF936B01B6
:101320007A01EC01C256DC4F28813CE0389F8001F5
:10133000399F100D1124A090C105B12C27FF1FC0AB
:10134000FB011182108288818F5F888388819801D8
:10135000280F311D87FD3A95F6012A153B051CF42F
:1013600088818C30C4F180819181049680349C49BD
:1013700008F473C0F60180819181049670C0888161
:101380009801280F311D87FD3A952A153B05DCF69B
:101390008881A801480F511D87FD5A95FA01EE0F6B
:1013A000FF1FE40FF51FEF5CFA4F808186FFCBCF64
:1013B0008881F801E80FF11D87FDFA95CF01EE0F46
:1013C000FF1FE80FF91FEF5CFA4F808160E08F7319
:1013D0000E94C806B8CF808191812881A801420F60
:1013E000511D27FD5A959A01FA01EE0FFF1FE20FDA
:1013F000F31FEF5CFA4F21813281820F931FF701B7
:101400009183808388819801280F311D87FD3A954B
:10141000F901EE0FFF1FE20FF31FEF5CFA4F80811F
:1014200086FF22C08881080F111D87FD1A95F801DB
:10143000EE0FFF1FE00FF11FEF5CFA4F808161E0BC
:101440008F73DF91CF911F910F91FF90EF90DF90FD
:10145000CF90BF90AF900C94C80680E49CE9F70150
:10146000918380838FEF8883DF91CF911F910F91BC
:10147000FF90EF90DF90CF90BF90AF900895862FB0
:10148000642F0C94F606FC0181890E949F0621E0DE
:10149000892B09F420E0822F0895DC011A96ED9142
:1014A000FC9130E020E01994CF92DF92FF920F93ED
:1014B0001F93CF93DF9300D01F921F92CDB7DEB75B
:1014C0008C011C8281E08B837A836983D801ED9142
:1014D000FC91F1881D82F801A081B181C480D58082
:1014E0009E012F5F3F4F50964C916FE0C801F6016F
:1014F00019958D818F5F8D838F1568F30F900F90F5
:101500000F900F900F90DF91CF911F910F91FF904F
:10151000DF90CF900895CF93DF9300D000D01F923B
:101520001F92CDB7DEB7BE016F5F7F4F28E0FB0192
:1015300011922A95E9F70E94540A28960FB6F8945A
:10154000DEBF0FBECDBFDF91CF910895DC011696AF
:10155000ED91FC9130E020E040E069E11994DC017C
:101560001696ED91FC9130E020E040E068E119949E
:101570009A01DC011696ED91FC91462F67E11994D2
:10158000EF92FF920F931F93CF93DF931F92CDB7EC
:10159000DEB77C018B01D8016C91673129F150F4E1
:1015A0006531A0F40F90DF91CF911F910F91FF90C3
:1015B000EF9008956A3118F16E3FA1F7F80141816B
:1015C000498369E2C7010E944D0A0BC0F8014181BD
:1015D0004983D7011696ED91FC9130E020E0C701D8
:1015E00019950E5F1F4FD7CFF80181818983AE0116
:1015F0004F5F5F4F61E0C7010E94B80AF2CF0F5FF3
:101600001F4FD7011696ED91FC9130E020E040E0AD
:10161000C7011995C0CF462FDC011696ED91FC91BC
:1016200030E020E066E11994462FDC011696ED913A
:10163000FC9130E020E065E11994EF92FF920F9366
:101640001F93CF93DF93EC01042F79016D3009F4E0
:1016500046C050F46B30C9F1693009F49FC06A305C
:1016600009F465C080E046C06E3009F452C06F30A6
:1016700099F70E94AF0AF7011381110F110F110F93
:101680006C89160F60E4CE010E94140B612F6295E5
:101690006F706061CE010E94140B612F6F70CE01DC
:1016A0000E940B0BF7016481606BCE010E940B0B53
:1016B000F701408151816281660F660F660FCE018E
:1016C0000E94B80A0150A1F72EC06FE272E04423D5
:1016D00011F06AE272E0CE010E94C00A0AC0411114
:1016E00010C063E272E00E94C00AE881F981828939
:1016F0008C8B81E0DF91CF911F910F91FF90EF9044
:1017000008956CE172E00E94C00AE881F981838942
:10171000EFCF0E94AF0A61E8CE010E94140B602F48
:10172000CE010E940B0BCE010E94A60AE2CFEA85F1
:10173000FB8530E020E040E068E2CE011995EE81C3
:10174000FF8130E020E040E064E1CE01199541E006
:101750006BE4CE010E944D0AE881F981448169E27F
:10176000CE010E944D0A40E06BE4CE010E944D0A7A
:10177000E881F981448169E2CE010E944D0A41E08D
:101780006BE4CE010E944D0AE881F981458169E24E
:10179000CE010E944D0A64E372E09DCF89E692E09B
:1017A000998388831C8AA5CFDC011896ED91FC9162
:1017B00030E020E040E069E11994DC011896ED91F9
:1017C000FC9130E020E040E068E11994CF93DF9392
:1017D0001F92CDB7DEB76983BE016F5F7F4F0E9456
:1017E00030060F90DF91CF910895EF92FF921F93F3
:1017F000CF93DF93EC01162F7A010E94DD0B60E49A
:10180000CE010E94E60BE885F9859701412F67E13B
:10181000CE011995CE01DF91CF911F91FF90EF90EE
:101820000C94D40BEF92FF921F93CF93DF93EC01B4
:10183000142F7901663181F138F4643109F44BC019
:10184000653179F080E022C06831C9F150F1693129
:10185000C9F780919D03882391F1CE010E94D40B9A
:101860002EC080919D03882319F0CE010E94D40BD5
:10187000CE010E94DD0B60E0CE010E94E60B612FDD
:10188000CE010E94E60B81E080939D03DF91CF9112
:101890001F91FF90EF900895642F0E94E60B81E066
:1018A000F5CF80919D03882319F0CE010E94D40BBF
:1018B000A701193138F4612FCE010E94F50B109267
:1018C0009D03EDCF68E1CE010E94F50B185188E130
:1018D000E80EF11CEDCF8E898F3F11F488E78E8BD7
:1018E000E885F9859701412F64E1CE01DF91CF9121
:1018F0001F91FF90EF901994662329F06A3019F038
:10190000862F90E008958FEF9FEF0895CF93DF9398
:10191000EC01A889B989FD013491319694913196F1
:1019200084911396FD01A4916317A8F1961798F17D
:10193000631B770B8A9FE02D1124E69FC001E79F70
:10194000900D1124280F392F311D83E0220F331FF2
:101950008A95E1F7C9010496DA01245F3F4FE889CF
:10196000F989E80FF91FE491ED9301968217930727
:10197000B1F78D89882361F0FA019A01285F3F4F02
:101980008191DF01119780958C932E173F07C1F746
:10199000DF91CF910895FA01CA0108961192E817D4
:1019A000F907E1F7E6CF4F925F926F927F928F92A5
:1019B0009F92AF92BF92CF92DF92EF92FF920F93DE
:1019C0001F93CF93DF93CDB7DEB72D970FB6F89463
:1019D000DEBF0FBECDBF7C01C62ED42EB22EDC01E1
:1019E00050968D919C91FC01329614913196049100
:1019F000512E560E040F81E0860F581608F411E0A0
:101A0000712CFE0131964F0144244394672CAC2C79
:101A1000262DA4016B2DC7010E94860CAC86DD86A5
:101A20004B869A868986D7011496ED91FC919E018A
:101A3000275F3F4F41E06FE0C70119956394A3947E
:101A4000A51430F3D394710ED01600F32D960FB673
:101A5000F894DEBF0FBECDBFDF91CF911F910F91E4
:101A6000FF90EF90DF90CF90BF90AF909F908F90BE
:101A70007F906F905F904F900895EF92FF920F9339
:101A80001F93CF93DF93E82EE091D605F091D70511
:101A90003296C4911092DE058B01D0E082E0F82EE0
:101AA000F80161918F01E091C805F091C90586ECBC
:101AB00095E019958F3F980771F08E3F2FEF9207B1
:101AC00079F3282F4E2D6F2D86EC95E00E94D30CD4
:101AD000FC0EDF5FE5CF8D2FDF91CF911F910F912E
:101AE000FF90EF900895CF92DF92EF92FF920F93C5
:101AF0001F93CF93DF93EC01962F683109F44BC00D
:101B0000B901993130F49431C9F0973189F080E00E
:101B100006C0993109F461C09032C9F781E0DF91C4
:101B2000CF911F910F91FF90EF90DF90CF9008958C
:101B300050E085E295E00E942909F0CF8C859D85D3
:101B4000AE85BF85892B8A2B8B2B71F4E881F981B7
:101B5000A585B0E020EA36E841E050E00E943D1B58
:101B60006C877D878E879F871092E4031092E30332
:101B70001092E6031092E5030E94BE088DEF98E0F4
:101B800090930E0480930D048EEF98E090931204CE
:101B900080931104C3CF2C853D854E855F8560E021
:101BA00074E284EF90E00E94501B205131094109FA
:101BB000510956954795379527952093B8008E89FA
:101BC00090E09595879591E09093C20380939C0354
:101BD0001092E6031092E503A1CFD091E503D13234
:101BE00008F093C0C0919C030E9432076B017C01F6
:101BF00080913504811164C082E08093350481E0D6
:101C0000809337048FEF8093340410925904D0935B
:101C10005804A2EAB3E0E8E3F4E080E0D8137CC023
:101C200010925A0480915A04CC0FC82BC0935A04C6
:101C300080913604813009F073C0109236040E94FE
:101C400032076B017C0180915A048093BB00809124
:101C5000E8039091E903A091EA03B091EB03892B8B
:101C60008A2B8B2B99F00E9432070091E803109188
:101C7000E9032091EA033091EB036C197D098E0989
:101C80009F090617170728073907D8F18091BC006C
:101C900083FDD9CF85EC8093BC000E9432076B0195
:101CA0007C01809135048230E9F1809134048F3FCA
:101CB00061F180913404803241F18091340425C077
:101CC0008091E8039091E903A091EA03B091EB03BE
:101CD000892B8A2B8B2B09F48BCF0E943207009122
:101CE000E8031091E9032091EA033091EB036C19AA
:101CF0007D098E099F09061717072807390708F07D
:101D000077CF8091E7030E94DC081092E6031092DF
:101D1000E5031092C20302CF9D9191938F5F7ECF16
:101D200085EEB9CF8091E8039091E903A091EA0391
:101D3000B091EB03892B8A2B8B2B09F4B2CF0E9435
:101D400032070091E8031091E9032091EA033091F2
:101D5000EB036C197D098E099F09061717072807E1
:101D6000390708F09ECFCDCF8F929F92AF92BF924E
:101D7000CF92DF92EF92FF92CF93DF937C01C62F39
:101D80006C32B0F46A32E8F5683249F1693209F42C
:101D900044C080E0C034B0F1CF73F701EC0FF11D07
:101DA000868D8F3F71F1C03108F06DC0642F14C073
:101DB0006D3209F456C068F384EB860F823048F721
:101DC000CF73CE0DDF2DD11D8E8D411158C061E036
:101DD0000E94F60660E08E8D0E94C80612C02EE1B9
:101DE000E20EF11CD0E0F70181917F018F3F31F0CD
:101DF00061E0D03108F062E00E94F606DF5FD63184
:101E000091F781E0DF91CF91FF90EF90DF90CF903D
:101E1000BF90AF909F908F900895C42ED12CF12C3D
:101E2000E12C0E9432074B015C01C114D104E10492
:101E3000F10439F30E943207681979098A099B096C
:101E4000683E73408105910580F3F1E0CF1AD10817
:101E5000E108F10828EE820E23E0921EA11CB11CBD
:101E6000E4CF85E090E0433010F082E090E0880F0E
:101E7000991F880F991F05970197F1F7C2CF62E06C
:101E80000E94F606BECF0E949F0621E0892B09F42E
:101E900020E0F701218FB5CF1F93CF93DF93EC01A3
:101EA000EC89FD8949AD6A3059F43396E491E40F29
:101EB000E9AF18AE81E090E0DF91CF911F910895D6
:101EC000262F3296149168AD04960E94D30CE8AD8B
:101ED000E10FE8AFEFCF682F82EC95E00C944C0F48
:101EE000880F991FFC01EC5EFD4F808191819093DA
:101EF000600480935F040E94570760935B047093B3
:101F00005C0480935D0490935E0481E08093700490
:101F10000895CF92DF92EF92FF920F931F93CF938A
:101F2000DF9300D000D000D01F92CDB7DEB72AE0FB
:101F3000EAE0F2E0DE01119601900D922A95E1F7B8
:101F400023E0880F991F2A95E1F78C010F571D4F49
:101F5000D12CC12CEE24E394F12CEC0EFD1EE60EE8
:101F6000F71EF80180810E5F1F4FF701608170E05E
:101F70000C2C02C0759567950A94E2F761700E9477
:101F8000C806FFEFCF1ADF0A84E0C816D10449F76C
:101F90002A960FB6F894DEBF0FBECDBFDF91CF916A
:101FA0001F910F91FF90EF90DF90CF9008950F93C6
:101FB0001F93CF93DF9381E08093640410926204B7
:101FC0001092610486EC95E00E948B0AC2ECD5E089
:101FD0000CE71CE01F830E8365EE72E080E00E9438
:101FE0003D0D1F830E836FEE72E082E00E943D0D77
:101FF0001F830E836DEF72E084E00E943D0D1F830E
:102000000E8369E073E086E00E943D0D18AE19AEC4
:102010008EE3DF91CF911F910F910C946B0FCF92B4
:10202000DF92EF92FF920F931F93CF93DF936C0198
:10203000EB017B01E40EF51E10E000E0CE15DF059C
:1020400061F06991D601ED91FC910190F081E02D54
:10205000C6011995080F191FF1CFC801DF91CF9163
:102060001F910F91FF90EF90DF90CF90089508950A
:1020700090E080E008958F929F92AF92BF920F936D
:102080001F93CF93DF93CDB7DEB7A1970FB6F89428
:10209000DEBF0FBECDBF19A2423008F44AE08E0168
:1020A0000F5D1F4F842E912CB12CA12CA501940102
:1020B0000E94501BE62FB901CA01EA3044F5E05DE9
:1020C000D801EE938D01232B242B252B79F790E05B
:1020D00080E0109769F0FD0101900020E9F7319749
:1020E000AF014A1B5B0BBD0182EC95E00E940F1013
:1020F000A1960FB6F894DEBF0FBECDBFDF91CF9192
:102100001F910F91BF90AF909F908F900895E95CC1
:10211000D7CF009769F0FC0101900020E9F73197D3
:10212000AF01481B590BBC0182EC95E00C940F10D9
:1021300090E080E00895CF93209169042223C1F0BC
:1021400090930102809300021092FA05C6E0C093BA
:10215000FB0580E193E00E9489101092FA05C0937C
:10216000FB058091000290910102CF910C9489109F
:10217000CF910895CF92DF92EF92FF92CF93DF93AA
:102180006C01990FEE08FF08F7FE17C08DE20E9460
:102190006B0FEC0166277727CB016C197D098E093F
:1021A0009F094AE00E943B108C0F9D1FDF91CF9149
:1021B000FF90EF90DF90CF9008954AE0C701B601FD
:1021C000DF91CF91FF90EF90DF90CF900C943B1078
:1021D0000F931F93CF93DF9386EC95E00E948B0AB9
:1021E00080E00E94FA05C2ECD5E018AE19AEE0918D
:1021F0006104F0916204EE0FFF1FEB55FD4F8081EB
:1022000091810E94891018AE82E089AF89E193E044
:102210000E94891080E293E00E94891018AE04E0C9
:1022200009AF88E293E00E94891016E018AF09AF69
:1022300080916504909166040E94BA1018AF85E001
:1022400089AF80E393E00E94891081E0809363046A
:10225000DF91CF911F910F9108950F931F93CF930B
:10226000DF9386EC95E00E948B0A80E00E94FA05DD
:10227000C2ECD5E018AE19AEE0916104F0916204B1
:10228000EE0FFF1FEB55FD4F808191810E94891059
:1022900018AE02E009AF88E293E00E94891016E0D0
:1022A00018AF09AF80910202909103020E94BA1008
:1022B00018AF83E089AF8FE293E00E94891081E03C
:1022C00080936804DF91CF911F910F910895FF9241
:1022D0000F931F93CF93DF93C2ECD5E088E088AFD4
:1022E00012E019AF8EE693E00E94891086E0F82E86
:1022F000F8AE19AF80910202909103020E94BA10C9
:1023000009E008AF19AF80917104909172040E94A6
:10231000BA10F8AE13E019AF86E193E00E9489107D
:1023200008AF19AF8FE293E00E94891081E080939B
:102330006704DF91CF911F910F91FF9008950E9444
:10234000F21C85ED8093BC008091E8039091E90335
:10235000A091EA03B091EB030796A11DB11D23E004
:10236000B695A795979587952A95D1F72091BC00AA
:1023700024FD03C01092350408954091E803509164
:10238000E9036091EA037091EB03452B462B472B41
:1023900069F30097A105B10541F02AE22A95F1F70A
:1023A00000C00197A109B109E1CF8091E7030C9426
:1023B000DC081F920F920FB60F9211242F933F93B8
:1023C0008F939F93AF93BF938091800490918104EA
:1023D000A0918204B091830430917F0423E0230F05
:1023E0002D3758F50196A11DB11D20937F048093D0
:1023F000800490938104A0938204B093830480911D
:10240000840490918504A0918604B091870401967C
:10241000A11DB11D8093840490938504A09386042C
:10242000B0938704BF91AF919F918F913F912F916E
:102430000F900FBE0F901F90189526E8230F02965D
:10244000A11DB11DD2CF1F920F920FB60F92112472
:102450000BB60F922F933F934F935F936F937F939E
:102460008F939F93AF93BF93EF93FF9388E894E08C
:102470000E94D707FF91EF91BF91AF919F918F91EC
:102480007F916F915F914F913F912F910F900BBE74
:102490000F900FBE0F901F9018951F920F920FB6BE
:1024A0000F9211240BB60F922F938F939F93EF935C
:1024B000FF93E0919804F09199048081E0919E044B
:1024C000F0919F0482FD1DC090818091A1048F5FD7
:1024D0008F732091A204821741F0E091A104F0E0F3
:1024E000E857FB4F958F8093A104FF91EF919F9147
:1024F0008F912F910F900BBE0F900FBE0F901F90DA
:1025000018958081F2CF1F920F920FB60F9211246F
:102510000BB60F922F933F934F935F936F937F93DD
:102520008F939F93AF93BF93EF93FF938091B900E5
:10253000887F803609F44DC008F040C0883209F425
:10254000A9C028F5803109F49DC0C8F4882309F496
:10255000FBC0883009F496C0FF91EF91BF91AF9115
:102560009F918F917F916F915F914F913F912F91AB
:102570000F900BBE0F900FBE0F901F9018958831D3
:1025800009F488C0803241F78093340414C0803449
:1025900009F49DC040F48033B9F38833E9F68093A1
:1025A000340485ECB0C0803509F485C0883509F461
:1025B00096C0883489F60E94A111CECF883909F4DB
:1025C0008CC038F5883729F050F4883611F0803700
:1025D00019F683E0809335041092330457C088388D
:1025E00009F47BC0803919F0803809F0B5CF8091AB
:1025F0003304803208F071C0E091330481E08E0F23
:10260000809333048091BB00F0E0ED5EFB4F80834C
:102610003DC0803B39F0E0F4803A09F479C0883A53
:1026200009F09ACF84E08093350410921004109240
:102630000F04E0910D04F0910E04199580910F04A0
:1026400081110FC081E080930F041092ED0309C047
:10265000803C09F4A6CF883C09F4A3CF883B09F05D
:102660007BCFE091100481E08E0F80931004F0E0A6
:10267000E351FC4F80818093BB00909110048091C6
:102680000F0429C080915A048093BB0085EC80938D
:10269000BC0062CF9091590480915804981758F566
:1026A000E091590481E08E0F80935904F0E0E85CDA
:1026B000FB4F8081E9CFE091590481E08E0F809338
:1026C00059048091BB00F0E0E85CFB4F808390915F
:1026D0005904809158049817C8F285E8D8CFE09142
:1026E000590481E08E0F809359048091BB00F0E083
:1026F000E85CFB4F80838091370481115CCF81E0DF
:102700008093360484EA8093BC001092350424CF71
:1027100085EC8093BC0010923504809133048032A4
:1027200030F4E0913304F0E0ED5EFB4F10826091F5
:10273000330470E0E0911104F091120483E194E01D
:1027400019951092330408CF1092340434CF1F929D
:102750000F920FB60F9211240BB60F922F933F9347
:102760004F935F936F937F938F939F93AF93BF9399
:10277000EF93FF9348E251E064E271E090E080E083
:102780000E948509FF91EF91BF91AF919F918F9129
:102790007F916F915F914F913F912F910F900BBE61
:1027A0000F900FBE0F901F9018951F920F920FB6AB
:1027B0000F9211240BB60F922F933F934F935F9379
:1027C0006F937F938F939F93AF93BF93EF93FF93F9
:1027D00048EA50E064EA70E083E090E00E948509F6
:1027E000FF91EF91BF91AF919F918F917F916F91E9
:1027F0005F914F913F912F910F900BBE0F900FBEA5
:102800000F901F9018951F920F920FB60F921124E0
:102810000BB60F922F933F934F935F936F937F93DA
:102820008F939F93AF93BF93EF93FF9348E950E04B
:1028300064E970E082E090E00E948509FF91EF91E9
:10284000BF91AF919F918F917F916F915F914F91C8
:102850003F912F910F900BBE0F900FBE0F901F90C6
:1028600018951F920F920FB60F9211240BB60F926C
:102870002F933F934F935F936F937F938F939F9388
:10288000AF93BF93EF93FF9348E850E064E870E0A4
:1028900081E090E00E948509FF91EF91BF91AF9197
:1028A0009F918F917F916F915F914F913F912F9168
:1028B0000F900BBE0F900FBE0F901F901895CF93E7
:1028C00010928B0410928A0488EE93E0A0E0B0E0AE
:1028D00080938C0490938D04A0938E04B0938F0406
:1028E00021EB32E0309389042093880425EC30E01A
:1028F000309395042093940424EC30E030939704B3
:102900002093960420EC30E03093990420939804AF
:1029100021EC30E030939B0420939A0422EC30E0C9
:1029200030939D0420939C0426EC30E030939F0468
:1029300020939E041092A1041092A2041092A3046A
:102940001092A4041092280510922705809329055F
:1029500090932A05A0932B05B0932C0583EC92E06D
:1029600090932605809325058091C105803308F05A
:1029700084C091E0980F9093C1058093FE0590E08C
:10298000FC01EE0FFF1FE80FF91FEF5CFA4F88EB19
:102990009BE09283818388E490E00E94CD1BFC0140
:1029A0009C01285B3F4F6AE070E041EE52E01282EA
:1029B0001382148215827783668310865183408345
:1029C000118A7296E217F30791F79093FD058093B1
:1029D000FC051092C5051092C4051092FA051092DC
:1029E000FB0585ED92E09093C3058093C20510929C
:1029F000C7051092C6051092DB051092DE051092F5
:102A0000D2051092D3051092D4051092D5058FEF00
:102A10008093DC058093E005E4EEF5E08AEF95E035
:102A2000CFEFC1938E179F07E1F78DE19BE0909365
:102A3000CB058093CA0582E19CE09093CD058093FD
:102A4000CC0583E79DE09093CF058093CE0584EB82
:102A50009EE09093D1058093D00530E020E040E0E7
:102A600069E086EC95E00E941D0BC093EF05C093D2
:102A7000F005C093F105CF9108958FEF8093FE0587
:102A80008ACFCF93DF9300D000D000D0CDB7DEB790
:102A9000789484B5826084BD84B5816084BD85B539
:102AA000826085BD85B5816085BD80916E00816045
:102AB00080936E00109281008091810082608093EB
:102AC00081008091810081608093810080918000ED
:102AD0008160809380008091B10084608093B10018
:102AE0008091B00081608093B000809191008260FD
:102AF00080939100809191008160809391008091FA
:102B000090008160809390008091A100826080930A
:102B1000A1008091A10081608093A1008091A0001C
:102B200081608093A00080912101826080932101C7
:102B30008091210181608093210180912001816039
:102B40008093200180917A00846080937A00809144
:102B50007A00826080937A0080917A00816080930D
:102B60007A0080917A00806880937A001092C10088
:102B7000E0919804F091990482E08083E0919404BC
:102B8000F09195041082E0919604F09197048FECF7
:102B900080831092A004E0919C04F0919D0486E053
:102BA0008083E0919A04F0919B048081806180830E
:102BB000E0919A04F0919B04808188608083E09189
:102BC0009A04F0919B04808180688083E0919A044C
:102BD000F0919B0480818F7D80838091FE058033FE
:102BE00008F052C061E08AE10E94F6068091FE057D
:102BF000282F30E0F901EE0FFF1FE20FF31FEF5C0B
:102C0000FA4F9081907C9A6190831092FF05109208
:102C100000062CE0622F0E94911B829FB0011124BC
:102C200030E020E0AB01420F531FFA01EE0FFF1F0F
:102C3000E40FF51FEF5CFA4F908196FD17C02F5FF0
:102C40003F4F2C30310571F7813009F03BC31092B2
:102C5000800082E0809381001092850010928400B1
:102C6000B19A80916F00826080936F00E091FE05C1
:102C70008E2F90E0FC01EE0FFF1FE80FF91FEF5CB5
:102C8000FA4F80818064808390E080E00E947E051E
:102C900061E08BE10E94F60651EAE52E52E0F52E46
:102CA00010E000E069E1C62ED12C8090FC059090E8
:102CB000FD05800E911E9B828A82D701BD907D0109
:102CC0006B2D70E0D401ED91FC910280F381E02D39
:102CD00042E050E0C4011995EA81FB81B18A108677
:102CE000DF010190F081E02D0190F081E02DCD0118
:102CF0001995882329F0EA81FB818085836080878C
:102D00000E945707AA81BB8112966D937D938D9384
:102D10009C931597E091FC05F091FD05E00FF11FE4
:102D2000D782C6820E5E1F4F0834110509F0BDCF51
:102D3000E1E8F2E0FB83EA8341EAA42E42E0B42E0C
:102D4000EA80FB8010E000E0D701DC90B2E0EB0EFF
:102D5000F11C61E08D2D0E94F60660E08D2D0E9431
:102D6000C8060F5F1F4F0430110571F7EA81FB8120
:102D70003896FB83EA83AE16BF0611F7E091CA05C9
:102D8000F091CB0530E020E040E06AE086EC95E091
:102D9000199586EC95E00E948B0AE091CA05F091A6
:102DA000CB0530E020E040E06BE086EC95E0199543
:102DB000E091CA05F091CB0530E020E040E06BE007
:102DC00086EC95E0199584E991E09093D70580937E
:102DD000D6050E94D70F6624639428EE222E23E0A6
:102DE000322E412C512C06E012E039E0732E0E9465
:102DF00057074B015C018091770481110AC08092D2
:102E0000730490927404A0927504B0927604609258
:102E10007704C0900202D0900302D986C886C6010A
:102E20006AE070E00E949D1B7C0190E080E00E94BF
:102E3000890FB70181E090E00E94890FE090710452
:102E4000F0907204FF82EE82C7016AE070E00E9497
:102E50009D1B6C0182E090E00E94890FB60183E027
:102E600090E00E94890F0E9457072091700422234E
:102E700009F459C220916C0430916D0440916E04A4
:102E800050916F046B017C01C21AD30AE40AF50A5F
:102E900024EFC21621E0D206E104F104D0F06093E1
:102EA0006C0470936D0480936E0490936F04809112
:102EB0006A0490916B04892B09F030C281E090E0A4
:102EC00090936B0480936A0460916A048BE10E9482
:102ED000C8068091730490917404A0917504B09118
:102EE000760475016401C81AD90AEA0AFB0AD701F7
:102EF000C60184369105A105B10508F42EC1809262
:102F0000730490927404A0927504B09276042E819A
:102F10003F812F5F3F4F2C33310509F406C23093B8
:102F200072042093710480916904882321F1009335
:102F3000FA051093FB0586E193E00E948910009347
:102F4000FA051093FB0580910202909103020E9402
:102F5000BA107092FA051093FB0586E193E00E9487
:102F600089107092FA051093FB058091710490917D
:102F700072040E94BA1080916804882391F0009333
:102F8000FA051093FB0586E193E00E9489100093F7
:102F9000FA051093FB0580910202909103020E94B2
:102FA000BA1080916704882321F10093FA051093E9
:102FB000FB0586E193E00E9489100093FA051093C7
:102FC000FB0580910202909103020E94BA10709258
:102FD000FA051093FB0586E193E00E948910709238
:102FE000FA051093FB0580917104909172040E9480
:102FF000BA10E0900202F0900302FB82EA82E090B5
:103000006504F09066048A809B808E149F0409F00A
:103010009CC18091710490917204892B09F095C133
:1030200081E090E00E94700F892889F482E090E0AE
:103030000E94700F83E090E00E94700F84E090E0A7
:103040000E94700FCA80DB80CE14DF0461F480918F
:10305000710490917204889731F41092700482E3A5
:1030600093E00E949B108091020290910302892BB1
:1030700061F48091710490917204889731F41092F8
:10308000700480E493E00E949B1080910202909172
:103090000302892B61F480917104909172048897E6
:1030A00031F41092700482E593E00E949B108091AD
:1030B000020290910302892B61F480917104909136
:1030C0007204889731F41092700489E193E00E94B1
:1030D0009B100E941205E0905F04F0906004FB8258
:1030E000EA828E159F05C9F10E945707C0905B04C4
:1030F000D0905C04E0905D04F0905E044B015C01B4
:103100008C189D08AE08BF088A819B8128EE821624
:1031100023E09206A104B104F0F40E9412056C01B0
:10312000990FEE08FF084A815B81BA01550F880BA1
:10313000990B6C197D098E099F09A50194010E94C4
:10314000811BA20191010E941E1BDA01C9018C0D95
:103150009D1DAE1DBF1D0E947E05D12CC12CF12CE2
:10316000E12C8091FC059091FD058C0D9D1D9B83AC
:103170008A83DC0118968C9118978B7F18968C9314
:103180001897ED91FC9111970190F081E02DCD0100
:1031900019958983EA81FB81808586958170898074
:1031A000881609F4E2C00E945707AA81BB811296D3
:1031B0006D937D938D939C93159718968C9118978A
:1031C000812718968C93E091FC05F091FD05EC0D9C
:1031D000FD1D808580FD68C082FF66C0E114F1049A
:1031E00009F029C180916404882309F414C1109264
:1031F000640410926904109268041092670410929B
:1032000063048091610490916204009709F0F7C013
:1032100086EC95E00E948B0A80E00E94FA051092ED
:10322000FA051092FB05E0916104F0916204EE0F43
:10323000FF1FEB55FD4F808191810E9489101092F4
:10324000FA051093FB0588E293E00E948910009331
:10325000FA051093FB0580910202909103020E94EF
:10326000BA108EE693E00E9489107092FA051093CE
:10327000FB0580917104909172040E94BA10109223
:10328000FA0584E08093FB0583E693E00E948910B1
:103290001092FA050093FB058091000290910102C3
:1032A0000E94891060926904FFEFEF1AFF0A22E181
:1032B000C20ED11C34E0E316F10409F052CF0E9493
:1032C000660895CD823061F4109290008093910051
:1032D000109295001092940088BB80937100C6CC28
:1032E000833069F41092A00082E08093A1001092D4
:1032F000A5001092A40089BB80937200B7CC811105
:10330000B5CC1092200182E080932101109225011A
:10331000109224018ABB80937300A8CC10926B0496
:1033200010926A04D1CD60E0D1CD10927204109257
:10333000710488859985019668E170E00E949D1B63
:103340009093030280930202EECDAA80BB80AB284B
:1033500009F078CE8091710490917204892B09F460
:1033600065CEEF2809F085CE72CE0E945707EA811C
:10337000FB8122813381448155814B015C01821A9A
:10338000930AA40AB50AB501A40186819781B0E029
:10339000A0E0481759076A077B0708F414CF808517
:1033A00081709980981609F40ECF0E945707AA8160
:1033B000BB8112966D937D938D939C931597189670
:1033C0008C9118978625846018968C930E945707D5
:1033D000EA81FB8181849284A384B4846819790989
:1033E0008A099B09658776878787908B0E94570794
:1033F000EA81FB816187728783879487E4CE81307D
:10340000910519F40E942D114FCF029709F04CCF6E
:103410000E94E81049CF80916904811145CF8091C5
:103420006804882309F440CF0E9467116092670402
:103430001092680439CFF1E0EF16F10409F082C070
:1034400080916404882341F180916104880F109277
:10345000FA058093FB0580E20E946B0F8091610466
:1034600090916204019797FD05C090936204809348
:10347000610407C083E0882E912C909262048092B0
:10348000610480916104880F1092FA058093FB0516
:103490008EE30E946B0F08CF80916904811104CFE5
:1034A000809168048823A1F0109267048091020241
:1034B0009091030201968831910529F090930302BF
:1034C000809302029FCF10920302109202029ACFC1
:1034D00080916704882391F0809171049091720427
:1034E00001969093720480937104CC9721F410920A
:1034F0007204109271040E946711D6CE8091630409
:103500008823A1F010926304809165049091660471
:1035100001968831910529F09093660480936504A3
:1035200077CF109266041092650472CF82E00E94F9
:10353000FA051092FA051093FB0580E793E00E94CC
:103540008910B2CE22E0E216F10409F06AC080913F
:1035500064048823C1F080916104880F1092FA05F9
:103560008093FB0580E20E946B0F80916104909133
:1035700062040196843091050CF477CF10926204B6
:10358000109261047ECF8091690481118DCE80916B
:103590006804882381F01092670480910202909160
:1035A0000302019708F08ACF47E150E050930302ED
:1035B0004093020227CF80916704882399F080917D
:1035C0007104909172040197909372048093710436
:1035D000019609F090CF8BE390E090937204809372
:1035E000710489CF80916304882381F01092630471
:1035F0008091650490916604019708F08DCFE7E112
:10360000F0E0F0936604E093650402CF84E00E944A
:10361000FA051092FA0584E08093FB0585E793E0B4
:103620008ECF109264041092690410926804109274
:103630006704109263040E94D70F36CE052E97FBC5
:103640001EF400940E94351B57FD07D00E94501BAA
:1036500007FC03D04EF40C94351B509540953095E3
:1036600021953F4F4F4F5F4F0895909580957095EE
:1036700061957F4F8F4F9F4F08950E94721BA59FAA
:10368000900DB49F900DA49F800D911D112408955D
:10369000B7FF0C943D1B0E943D1B821B930B0895AA
:1036A000A1E21A2EAA1BBB1BFD010DC0AA1FBB1F46
:1036B000EE1FFF1FA217B307E407F50720F0A21BB8
:1036C000B30BE40BF50B661F771F881F991F1A9425
:1036D00069F760957095809590959B01AC01BD014F
:1036E000CF010895A29FB001B39FC001A39F700DA9
:1036F000811D1124911DB29F700D811D1124911DFA
:103700000895DB018F939F930E943D1BBF91AF9162
:10371000A29F800D911DA39F900DB29F900D11242B
:103720000895991B79E004C0991F961708F0961B1D
:10373000881F7A95C9F78095089597FB072E16F490
:10374000009407D077FD09D00E94B91B07FC05D073
:103750003EF4909581959F4F0895709561957F4FA8
:103760000895EE0FFF1F881F8BBF0790F691E02D85
:103770001994AA1BBB1B51E107C0AA1FBB1FA617A8
:10378000B70710F0A61BB70B881F991F5A95A9F70A
:1037900080959095BC01CD0108950F931F93CF9311
:1037A000DF938230910510F482E090E0E09103060F
:1037B000F091040630E020E0B0E0A0E0309799F40A
:1037C0002115310509F44AC0281B390B2430310575
:1037D000D8F58A819B816115710589F1FB0193837D
:1037E0008283FE0111C040815181028113814817FB
:1037F0005907E0F04817590799F4109761F01296AD
:103800000C93129713961C933296CF01DF91CF91B0
:103810001F910F9108950093030610930406F4CFAF
:103820002115310551F04217530738F0A901DB018A
:103830009A01BD01DF01F801C1CFEF01F9CF9093EB
:10384000040680930306CDCFFE01E20FF31F8193A0
:1038500091932250310939832883D7CF20910106D3
:1038600030910206232B41F4209106023091070289
:103870003093020620930106209104023091050244
:103880002115310541F42DB73EB740910802509102
:103890000902241B350BE0910106F0910206E217A4
:1038A000F307A0F42E1B3F0B2817390778F0AC0163
:1038B0004E5F5F4F2417350748F04E0F5F1F509340
:1038C000020640930106819391939FCFF0E0E0E0E0
:1038D0009CCFCF93DF930097E9F0FC0132971382DE
:1038E0001282A0910306B0910406ED0130E020E0C1
:1038F0001097A1F420813181820F931F209101063E
:10390000309102062817390709F061C0F0930206CA
:10391000E0930106DF91CF910895EA01CE17DF070A
:10392000E8F54A815B819E0141155105B1F7E90136
:10393000FB83EA8349915991C40FD51FEC17FD070A
:1039400061F4808191810296840F951FE90199832A
:103950008883828193819B838A83F0E0E0E01296E2
:103960008D919C9113970097B9F52D913C911197EA
:10397000CD010296820F931F20910106309102061D
:103980002817390739F6309751F51092040610922E
:103990000306B0930206A0930106BCCFD383C28373
:1039A00040815181840F951FC817D90761F44E5F7C
:1039B0005F4F88819981480F591F518340838A81C5
:1039C0009B81938382832115310509F0B0CFF09359
:1039D0000406E09303069ECFFD01DC01C0CF1382F5
:1039E0001282D7CF81E090E0F8940C94F71CF89401
:0239F000FFCF07
:1039F20019030C0000000506800000010203040503
:103A020006070809B4005A002D0087001815A015F2
:103A1200C019FF1815A115C819FF1815AE19FF18FE
:103A220015AF19FF1815AE15D5168015A8163F1536
:103A3200D316001540158D16141520160015A11564
:103A4200C815DA1612158116CF15D916F115DB161F
:103A520040152E15A415A619FF0001140A6464323C
:103A62003200127A000004289610080000800040FC
:103A72000002000300040005000600070008000918
:103A8200000A000B000C000D000E000F00100011C8
:103A92000016171819E502EF02FD020903000000E3
:103AA20000F907630790074608C1079F07B307009D
:103AB200000000560929093810FF0822090F0900E1
:103AC20009000000004C0F0F1038103710000000E2
:103AD20000430A3F0A53686F772074696D6500548A
:103AE200696D652073657474696E6773005478201C
:103AF20073657474696E677300416C61726D7300F3
:103B02002020202020202020004E534149447300D1
:103B120073657474696E670054696D653A20005F5D
:103B22005F0041636574616D696E6F7068656E00F8
:103B32004F70696F696420416E616C676573696378
:103B420073004D7573636C652052656C6178616EAC
:103B52007473004E65787420506C617965723A0016
:083B6200646F776E00757000BE
:00000001FF
