:100000000C94DD040C940E050C940E050C940E0556
:100010000C940E050C940E050C940E050C940E0514
:100020000C940E050C940E050C940E050C940E0504
:100030000C940E050C940E050C940E050C940E05F4
:100040000C940E050C940E050C940E050C940E05E4
:100050000C940E050C940E050C940E050C947E0E5B
:100060000C940E050C94F20E0C94C80E0C940E0514
:100070000C940E050C940E050C940E050C940E05B4
:100080000C940E050C940E050C940E050C940E05A4
:100090000C940E050C940E050C940E050C94280F70
:1000A0000C940E050C940E050C940E050C940E0584
:1000B0000C940E050C940E050C940E050C940E0574
:1000C0000C940E050C940E050C940E050C940E0564
:1000D0000C940E050C940E050C940E050C940E0554
:1000E0000C940E050C9411070C94D9060C94B305CE
:1000F0000C94060E0C9483050C9427080C94DA0AD1
:100100000C94A1080C94AF050C9417080C942E0EB7
:100110000C943A080C94A5050C9416080C94A806A7
:100120000C947C050C9493050C944C100C9497053E
:100130000C9418080C946E050C946E080C947B06B5
:100140000C9480050C9489050C9415080C945E079A
:100150000C9478050C94AE050C9441080C94B706E9
:100160000C948D050C947B090C94A9050C94D10B6F
:100170000C94AA0D0C94700A0C94CB060C949D0858
:100180000C94120D0C949B050C942F0E0C94A1054D
:100190000C94740520FF0101000000000000000025
:1001A0000000065F060000000000070000070000D6
:1001B00000147F14147F140000242A6B6B2A120091
:1001C0000046261008646200304A454D3248480017
:1001D0000000040300000000001C22410000000099
:1001E000000041221C000000082A1C1C1C2A0800D8
:1001F0000008083E080800000000806000000000C1
:10020000000808080808080000000060000000005E
:100210000040201008040200003E615149453E00A4
:100220000044427F4040000000625151494966004D
:100230000022414949493600101814527F501000DD
:100240000027454545453900003C4A4949493000A9
:100250000003017109050300003649494949360088
:100260000006494949291E00000000660000000000
:100270000000806600000000000814224100000019
:100280000024242424242400000000412214080017
:100290000002010151090600003E415D55551E0056
:1002A000007C121111127C0000417F49494936003F
:1002B000001C22414141220000417F4141221C009B
:1002C00000417F495D41630000417F491D010300FA
:1002D000001C224151517200007F080808087F006D
:1002E0000000417F4100000000304040413F0100DC
:1002F00000417F081422414000417F41404060009E
:10030000007F01020402017F007F010204087F00D8
:10031000001C224141221C0000417F4909090600BE
:10032000001E212131215E4000417F4919294600EC
:100330000026494949493200000301417F41010338
:10034000003F404040403F00000F10204020100F71
:10035000003F40403840403F0041221408142241F1
:100360000001024478440201004361514945436160
:10037000007F4141410000000102040810204000BC
:10038000004141417F00000008040201020408000E
:100390008080808080808080000000030400000056
:1003A000002054545454784000017F30484848306D
:1003B00000384444444428000030484848317F40D5
:1003C00000385454545418000000487E490102007B
:1003D0000098A4A4A4A4780400417F080404780031
:1003E0000000447D400000000060808080847D002B
:1003F00000017F10284440000000417F40000000C1
:10040000007C040478040478007C08040404780068
:1004100000384444444438000084FC9824241800E4
:100420000018242498FC840000447C48040418002C
:1004300000485454545424000004043F4444200011
:10044000003C404040207C00000C10204020100C5C
:10045000003C40403840403C004428102844000004
:10046000009CA0A0A0A07C00004464544C44000068
:10047000000808364141000000000077000000003D
:10048000000041413608080000020101020201009B
:100490000070484442444870000000000000000022
:1004A000000000000000000000000000000000004C
:1004B000000000000000000000000000000000003C
:1004C000000000000000000000000000000000002C
:1004D000000000000000000000000000000000001C
:1004E000000000000000000000000000000000000C
:1004F00000000000000000000000000000000000FC
:1005000000000000000000000000000000000000EB
:1005100000000000000000000000000000000000DB
:1005200000000000000000000000000000000000CB
:1005300000000000000000000000000000000000BB
:1005400000000000000000000000000000000000AB
:10055000000000000000000000000000000000009B
:10056000000000000000000000000000000000008B
:10057000000000000000000000000000000000007B
:10058000000000000000000000000000000000006B
:10059000000000000000000000000000000000005B
:1005A0000000007A0000000000182424E724240042
:1005B00000685E4941422000425A2424245A4200E5
:1005C0000015167C161500000000007700000000E2
:1005D00040DAA7A5E5590302000100000001000070
:1005E0007E8199A5A5817E0000262929292F280032
:1005F000000814220814220000080808080838001F
:1006000000080808080808007E81BD95A9817E00C1
:1006100001010101010101010006090906000000B4
:100620000044445F44440000001219151200000009
:10063000000A11150A00000000000002010000007D
:10064000807E1010100E10000609097F01017F0145
:10065000000000101000000000008080A04000009A
:1006600000121F1000000000002629292926000082
:1006700000221408221408004A2F1828342AFD20CA
:100680004A2F1888D4CAA9B095552A506854FA4000
:1006900000304845404020000179141212147800BF
:1006A000007814121214790100722925252972008C
:1006B00000791515151579000079141212147900B6
:1006C0000070282B2B287000007C0A09097F4949FB
:1006D000000E9191B1B14A0000457D545444000090
:1006E00000447C545545000002457D5555450200A7
:1006F00000457C54544500000001457C4400000046
:100700000000447C450100000201457D45010200D6
:100710000001447C4401000000497F4941221C0043
:10072000007A09112243780001192442422418005A
:100730000018244242241901122945454529120076
:100740000011294545452911001924424224190068
:1007500000221408142200003E7159494D473E0002
:10076000003D414040403C00003C404040413D0095
:10077000003A414141413A00003D404040403D0087
:10078000000448704805010000417F55141408001A
:10079000007E010149562000002055555478400044
:1007A0000020545455794000002255555579420097
:1007B0000021555555557940002154545478410035
:1007C0000020545554784000002054547838545434
:1007D000001824A4A4E440000038555554541800CF
:1007E0000038545455551800003A555555551A00BF
:1007F0000039545454541900000001457C40000055
:10080000000000447D4100000201457D41020000DE
:10081000000001447C41000000304A4A4B3E020087
:10082000007A09090A0A71000030494A4848300034
:10083000003048484A49300000304A49494A3000AF
:1008400000324A4A4A4A3200003248484848320098
:100850000008086B6B080800B84464544C443A0024
:10086000003841424040380000384040444238009F
:100870000038424141423800003A4040407A40004E
:100880000018A0A0A0A27A000081FFA424241800D0
:10089000001AA0A0A0A07A000000210024002700D8
:1008A0002A002D003000330001010000040107017F
:1008B0000A0100002200250028002B002E00310034
:1008C000340002010000050108010B0100002000B6
:1008D0002300260029002C002F0032000001000018
:1008E00003010601090105050505070508080808B3
:1008F000020202020A0A08080404040401010101B8
:1009000001010101030303030303030304070707B2
:100910000C0C0C0C0C0C0C0C020202020606060657
:10092000060606060B0B0B0B0B0B0B0B0102102024
:100930002008081020401020408002010201080415
:1009400002010102040810204080804020100804A9
:100950000201800402018040201008040201080402
:100960000201010204081020408001020408102046
:10097000408000000A0B02090C0D0E080703040159
:100980000000000000000000000000000000000067
:100990000000000000000000000000000000121134
:1009A0001000000000000000000000000000000037
:1009B00000000000000000004C1011241FBECFEF0B
:1009C000D1E2DEBFCDBF00E00CBF12E0A0E0B2E09C
:1009D000E2E2F9E200E00BBF02C007900D92A23EF6
:1009E000B107D9F724E0A2EEB2E001C01D92A53B09
:1009F000B207E1F714E0CDEDD4E000E006C02197A6
:100A00000109802FFE010E944313CC3DD10780E0F5
:100A10000807A9F70E9412110C948F140C9400007F
:100A200080E00895CF93DF93CDB7DEB72D970FB653
:100A3000F894DEBF0FBECDBFFE01319698E0DF0116
:100A40001D929A95E9F7A0917904B0917A04519694
:100A50009C915197891798F41C868D8781E08B872C
:100A6000FA87E987E0917D04F0917E049E01275F7B
:100A70003F4F50964C916FE089E794E019952D9681
:100A80000FB6F894DEBF0FBECDBFDF91CF910895B2
:100A90009B01DC011896ED91FC9141E067E119940E
:100AA0008150823108F05AC0E82FF0E08827E45ADC
:100AB000FA4F8F4F0C9443137C0580056E05740527
:100AC0007805AE05830589058D05930597059B057A
:100AD000A105A505AE05A905AF05B3058091800068
:100AE0008F77809380000895809180008F7DF9CF6B
:100AF00080918000877FF5CF84B58F7784BD08957E
:100B000084B58F7DFBCF8091B0008F778093B0004C
:100B100008958091B0008F7DF9CF809190008F77FC
:100B2000809390000895809190008F7DF9CF8091FF
:100B30009000877FF5CF8091A0008F778093A000F1
:100B400008958091A0008F7DF9CF8091A000877FCC
:100B5000F5CF809120018F778093200108958091B7
:100B600020018F7DF9CF80912001877FF5CFCF9332
:100B7000DF93282F30E0F901EE58F64F8491F90108
:100B8000E45DF64FD491F901EA51F74FC491CC23BB
:100B9000A1F081110E945005EC2FF0E0EE0FFF1F35
:100BA000E453F74FA591B491EC91ED2381E090E0EF
:100BB00009F480E0DF91CF91089580E090E0FACFD2
:100BC0001F93CF93DF93282F30E0F901EE58F64FB3
:100BD0008491F901E45DF64FD491F901EA51F74FA0
:100BE000C491CC23A9F0162F81110E945005EC2F3F
:100BF000F0E0EE0FFF1FEE54F74FA591B4918FB7C1
:100C0000F894EC91111108C0D095DE23DC938FBFCE
:100C1000DF91CF911F910895DE2BF8CFCF93DF9313
:100C200090E0FC01E45DF64F24918A51974FFC015E
:100C300084918823C9F090E0880F991FFC01E85641
:100C4000F74FA591B491FC01EE54F74FC591D491A3
:100C500061110DC09FB7F8948C91209582238C93DD
:100C60008881282328839FBFDF91CF910895623028
:100C700051F49FB7F8943C91822F809583238C93F5
:100C8000E8812E2BEFCF8FB7F894EC912E2B2C937D
:100C90008FBFEACF3FB7F8948091C8039091C90302
:100CA000A091CA03B091CB0326B5A89B05C02F3FE6
:100CB00019F00196A11DB11D3FBFBA2FA92F982F82
:100CC0008827BC01CD01620F711D811D911D42E07D
:100CD000660F771F881F991F4A95D1F708952FB780
:100CE000F8946091C4037091C5038091C6039091FC
:100CF000C7032FBF0895AF92BF92CF92DF92EF92BA
:100D0000FF920F931F93CF93DF936C017B018B01B5
:100D1000040F151FEB015E01AE18BF08C017D10705
:100D200059F06991D601ED91FC910190F081E02D8F
:100D3000C6011995892B79F7C501DF91CF911F91D4
:100D40000F91FF90EF90DF90CF90BF90AF900895FC
:100D5000FC01538D448D252F30E0842F90E0821BC1
:100D6000930B541710F0CF96089501970895FC0146
:100D7000918D828D981761F0A28DAE0FBF2FB11D9E
:100D80005D968C91928D9F5F9F73928F90E00895F6
:100D90008FEF9FEF0895FC01918D828D981731F0B0
:100DA000828DE80FF11D858D90E008958FEF9FEF04
:100DB0000895FC01918D228D892F90E0805C9F4FDA
:100DC000821B91098F73992708958CEC93E00E9400
:100DD000D90621E0892B09F420E0822F0895FC0137
:100DE000A48DA80FB92FB11DA35ABF4F2C91848D8C
:100DF00090E001968F739927848FA689B7892C93E9
:100E0000A089B1898C91837080648C93938D848D3B
:100E1000981306C00288F389E02D80818F7D80833E
:100E20000895EF92FF920F931F93CF93DF93EC01FE
:100E300081E0888F9B8D8C8D98131AC0E889F98981
:100E4000808185FF15C09FB7F894EE89FF89608384
:100E5000E889F98980818370806480839FBF81E005
:100E600090E0DF91CF911F910F91FF90EF90089547
:100E7000F62E0B8D10E00F5F1F4F0F731127E02E22
:100E80008C8D8E110CC00FB607FCFACFE889F9895A
:100E9000808185FFF5CFCE010E94EF06F1CFEB8D6B
:100EA000EC0FFD2FF11DE35AFF4FF0829FB7F8942E
:100EB0000B8FEA89FB8980818062CFCFCF93DF934C
:100EC000EC01888D8823B9F0AA89BB89E889F98962
:100ED0008C9185FD03C0808186FD0DC00FB607FC97
:100EE000F7CF8C9185FFF2CF808185FFEDCFCE01CA
:100EF0000E94EF06E9CFDF91CF91089580E090E066
:100F0000892B29F00E94E50681110E94000080E0F3
:100F100090E0892B49F080E090E0892B29F00E9435
:100F2000000081110E94000080E090E0892B49F0D0
:100F300080E090E0892B29F00E94000081110E943E
:100F4000000080E090E0892B49F080E090E0892B60
:100F500029F00E94000081110C9400000895209156
:100F60007503260F3327331F21323105ECF420910E
:100F70009B03FC0190E080E0243069F082E008955A
:100F8000A09175032191AC014D5A5C4FA40FB52F70
:100F9000B11D2C930196861798F380917503680F05
:100FA0006093750380E0089581E0089510929B039B
:100FB00081E080939D0310929C0361E084E10E9494
:100FC000E00561E085E10E94E005E9EBF0E0808169
:100FD0008E7F808380818D7F808388E48093B800BA
:100FE00085E48093BC000895CF93DF9391E09093C4
:100FF00052038823B9F0C091B800D091BA00809113
:10100000BC008A7B8093BC0060E084E10E94E00524
:1010100060E085E10E94E0050E94D607D093BA0007
:10102000C093B800DF91CF91089508950895089571
:10103000E0914A0380914903E81730F4F0E0E75D5E
:10104000FC4F808190E008958FEF9FEF089590917D
:101050004A03809149032FEF3FEF981748F4E92F97
:10106000F0E0E75DFC4F208130E09F5F90934A0302
:10107000C90108958091490390914A03891B990BF6
:101080000895CF92DF92EF92FF920F931F93CF9329
:10109000DF937C01CB018A0120912803222389F070
:1010A000EB016B01C40ED51ECC15DD0569F069910D
:1010B000D701ED91FC910190F081E02DC7011995C8
:1010C000F3CF642F0E94AF07C801DF91CF911F912A
:1010D0000F91FF90EF90DF90CF900895CF93DF9323
:1010E0001F92CDB7DEB76983209128032223F9F040
:1010F00020914B03203258F021E030E0FC01338393
:10110000228390E080E00F90DF91CF91089580914D
:101110004C03E82FF0E0E85FFC4F998190838F5FEC
:1011200080934C0380934B0381E090E0ECCF61E02F
:10113000CE0101960E94AF07F7CF862F642F0C9443
:101140000E06FC0181890E94B70521E0892B09F474
:1011500020E0822F0895DC011A96ED91FC9130E099
:1011600020E01994CF92DF92FF920F931F93CF93B9
:10117000DF9300D01F921F92CDB7DEB78C011C8287
:1011800081E08B837A836983D801ED91FC91F188AA
:101190001D82F801A081B181C480D5809E012F5F9E
:1011A0003F4F50964C916FE0C801F60119958D8123
:1011B0008F5F8D838F1568F30F900F900F900F90B6
:1011C0000F90DF91CF911F910F91FF90DF90CF9003
:1011D0000895CF93DF9300D000D01F921F92CDB718
:1011E000DEB7BE016F5F7F4F28E0FB0111922A95A9
:1011F000E9F70E94B20828960FB6F894DEBF0FBE3A
:10120000CDBFDF91CF910895DC011696ED91FC9151
:1012100030E020E040E069E11994DC011696ED91A0
:10122000FC9130E020E040E068E119949A01DC0193
:101230001696ED91FC91462F67E11994EF92FF927B
:101240000F931F93CF93DF931F92CDB7DEB77C012F
:101250008B01D8016C91673129F150F46531A0F40C
:101260000F90DF91CF911F910F91FF90EF90089514
:101270006A3118F16E3FA1F7F8014181498369E2B3
:10128000C7010E94AB080BC0F80141814983D70117
:101290001696ED91FC9130E020E0C70119950E5FA4
:1012A0001F4FD7CFF80181818983AE014F5F5F4F18
:1012B00061E0C7010E941609F2CF0F5F1F4FD701EF
:1012C0001696ED91FC9130E020E040E0C7011995C1
:1012D000C0CF462FDC011696ED91FC9130E020E066
:1012E00066E11994462FDC011696ED91FC9130E0F1
:1012F00020E065E11994EF92FF920F931F93CF9333
:10130000DF93EC01042F79016D3009F446C050F4ED
:101310006B30C9F1693009F49FC06A3009F465C0C7
:1013200080E046C06E3009F452C06F3099F70E94D9
:101330000D09F7011381110F110F110F6C89160F91
:1013400060E4CE010E947209612F62956F70606146
:10135000CE010E947209612F6F70CE010E9469094F
:10136000F7016481606BCE010E946909F701408139
:1013700051816281660F660F660FCE010E941609C9
:101380000150A1F72EC06AE172E0442311F065E13B
:1013900072E0CE010E941E090AC0411110C06EE029
:1013A00072E00E941E09E881F98182898C8B81E0BC
:1013B000DF91CF911F910F91FF90EF90089567E01B
:1013C00072E00E941E09E881F9818389EFCF0E94B3
:1013D0000D0961E8CE010E947209602FCE010E94C2
:1013E0006909CE010E940409E2CFEA85FB8530E05D
:1013F00020E040E068E2CE011995EE81FF8130E007
:1014000020E040E064E1CE01199541E06BE4CE01BB
:101410000E94AB08E881F981448169E2CE010E9413
:10142000AB0840E06BE4CE010E94AB08E881F98193
:10143000448169E2CE010E94AB0841E06BE4CE0139
:101440000E94AB08E881F981458169E2CE010E94E2
:10145000AB086FE172E09DCF84E592E099838883C9
:101460001C8AA5CFDC011896ED91FC9130E020E0BC
:1014700040E069E11994DC011896ED91FC9130E0AF
:1014800020E040E068E11994CF93DF931F92CDB73D
:10149000DEB76983BE016F5F7F4F0E9448050F90E2
:1014A000DF91CF910895EF92FF921F93CF93DF9337
:1014B000EC01162F7A010E943B0A60E4CE010E94E3
:1014C000440AE885F9859701412F67E1CE01199516
:1014D000CE01DF91CF911F91FF90EF900C94320AD3
:1014E000EF92FF921F93CF93DF93EC01142F7901BA
:1014F000663181F138F4643109F44BC0653179F01B
:1015000080E022C06831C9F150F16931C9F780919A
:101510000703882391F1CE010E94320A2EC08091E8
:101520000703882319F0CE010E94320ACE010E94DF
:101530003B0A60E0CE010E94440A612FCE010E9466
:10154000440A81E080930703DF91CF911F91FF90C0
:10155000EF900895642F0E94440A81E0F5CF8091B6
:101560000703882319F0CE010E94320AA70119311E
:1015700038F4612FCE010E94530A10920703EDCF79
:1015800068E1CE010E94530A185188E1E80EF11C6F
:10159000EDCF8E898F3F11F488E78E8BE885F98532
:1015A0009701412F64E1CE01DF91CF911F91FF9010
:1015B000EF901994662329F06A3019F0862F90E095
:1015C00008958FEF9FEF0895CF93DF93EC01A889E3
:1015D000B989FD0134913196949131968491139695
:1015E000FD01A4916317A8F1961798F1631B770B7F
:1015F0008A9FE02D1124E69FC001E79F900D1124E2
:10160000280F392F311D83E0220F331F8A95E1F710
:10161000C9010496DA01245F3F4FE889F989E80F90
:10162000F91FE491ED93019682179307B1F78D8925
:10163000882361F0FA019A01285F3F4F8191DF0111
:10164000119780958C932E173F07C1F7DF91CF91AB
:101650000895FA01CA0108961192E817F907E1F70F
:10166000E6CF4F925F926F927F928F929F92AF924E
:10167000BF92CF92DF92EF92FF920F931F93CF937F
:10168000DF93CDB7DEB72D970FB6F894DEBF0FBE50
:10169000CDBF7C01C62ED42EB22EDC0150968D918A
:1016A0009C91FC013296149131960491512E560E64
:1016B000040F81E0860F581608F411E0712CFE012A
:1016C00031964F0144244394672CAC2C262DA40161
:1016D0006B2DC7010E94E40AAC86DD864B869A8694
:1016E0008986D7011496ED91FC919E01275F3F4FAB
:1016F00041E06FE0C70119956394A394A51430F3FA
:10170000D394710ED01600F32D960FB6F894DEBF69
:101710000FBECDBFDF91CF911F910F91FF90EF9042
:10172000DF90CF90BF90AF909F908F907F906F9001
:101730005F904F900895EF92FF920F931F93CF9376
:10174000DF93E82EE0918904F0918A043296C491E7
:10175000109291048B01D0E082E0F82EF8016191A3
:101760008F01E0917B04F0917C0489E794E0199566
:101770008F3F980771F08E3F2FEF920779F3282F54
:101780004E2D6F2D89E794E00E94310BFC0EDF5F38
:10179000E5CF8D2FDF91CF911F910F91FF90EF90AB
:1017A0000895CF92DF92EF92FF920F931F93CF9302
:1017B000DF93EC01962F683109F44BC0B9019931E0
:1017C00030F49431C9F0973189F080E006C0993146
:1017D00009F461C09032C9F781E0DF91CF911F9188
:1017E0000F91FF90EF90DF90CF90089550E089E641
:1017F00094E00E944108F0CF8C859D85AE85BF8521
:10180000892B8A2B8B2B71F4E881F981A585B0E0B7
:1018100020EA36E841E050E00E944B136C877D8758
:101820008E879F8710924A031092490310924C03AF
:1018300010924B030E94D60785E198E090937403C1
:101840008093730386E198E0909378038093770305
:10185000C3CF2C853D854E855F8560E074E284EFC3
:1018600090E00E94211320513109410951095695F8
:101870004795379527952093B8008E8990E09595E8
:10188000879591E0909328038093060310924C0370
:1018900010924B03A1CFD0914B03D13208F093C0EB
:1018A000C09106030E944A066B017C0180919B0354
:1018B000811164C082E080939B0381E080939D034B
:1018C0008FEF80939A031092BF03D093BE03A8E0DA
:1018D000B3E0EEE9F3E080E0D8137CC01092C003DF
:1018E0008091C003CC0FC82BC093C00380919C0390
:1018F000813009F073C010929C030E944A066B016C
:101900007C018091C0038093BB0080914E03909135
:101910004F03A0915003B0915103892B8A2B8B2B3D
:1019200099F00E944A0600914E0310914F032091B6
:101930005003309151036C197D098E099F090617D8
:10194000170728073907D8F18091BC0083FDD9CF4C
:1019500085EC8093BC000E944A066B017C0180915B
:101960009B038230E9F180919A038F3F61F180916E
:101970009A03803241F180919A0325C080914E03F1
:1019800090914F03A0915003B0915103892B8A2B62
:101990008B2B09F48BCF0E944A0600914E031091C5
:1019A0004F0320915003309151036C197D098E092A
:1019B0009F09061717072807390708F077CF809186
:1019C0004D030E94F40710924C0310924B031092A7
:1019D000280302CF9D9191938F5F7ECF85EEB9CF83
:1019E00080914E0390914F03A0915003B091510309
:1019F000892B8A2B8B2B09F4B2CF0E944A060091C7
:101A00004E0310914F0320915003309151036C19F4
:101A10007D098E099F09061717072807390708F05F
:101A20009ECFCDCF8F929F92AF92BF92CF92DF92F7
:101A3000EF92FF92CF93DF937C01C62F6C32B0F40C
:101A40006A32E8F5683249F1693209F444C080E04D
:101A5000C034B0F1CF73F701EC0FF11D868D8F3FCD
:101A600071F1C03108F06DC0642F14C06D3209F4FB
:101A700056C068F384EB860F823048F7CF73CE0DE3
:101A8000DF2DD11D8E8D411158C061E00E940E06E0
:101A900060E08E8D0E94E00512C02EE1E20EF11C86
:101AA000D0E0F70181917F018F3F31F061E0D031CB
:101AB00008F062E00E940E06DF5FD63191F781E008
:101AC000DF91CF91FF90EF90DF90CF90BF90AF90DC
:101AD0009F908F900895C42ED12CF12CE12C0E9460
:101AE0004A064B015C01C114D104E104F10439F34D
:101AF0000E944A06681979098A099B09683E734061
:101B00008105910580F3F1E0CF1AD108E108F108D1
:101B100028EE820E23E0921EA11CB11CE4CF85E0CA
:101B200090E0433010F082E090E0880F991F880F1A
:101B3000991F05970197F1F7C2CF62E00E940E0648
:101B4000BECF0E94B70521E0892B09F420E0F70100
:101B5000218FB5CF1F93CF93DF93EC01EC89FD89E3
:101B600049AD6A3059F43396E491E40FE9AF18AE09
:101B700081E090E0DF91CF911F910895262F32965A
:101B8000149168AD04960E94310BE8ADE10FE8AF07
:101B9000EFCF682F85E794E00C94AA0D0F931F9365
:101BA000CF93DF9381E0809300021092C2031092E2
:101BB000C10389E794E00E94E908C5E7D4E00AED93
:101BC0001AE01F830E8360EB72E080E00E949B0BA3
:101BD0001F830E836EEB72E082E00E949B0B1F83DB
:101BE0000E8368EC72E084E00E949B0B1F830E83DF
:101BF00064ED72E086E00E949B0B18AE19AE8EE396
:101C0000DF91CF911F910F910C94C90DCF92DF926C
:101C1000EF92FF920F931F93CF93DF936C01EB0131
:101C20007B01E40EF51E10E000E0CE15DF0561F04B
:101C30006991D601ED91FC910190F081E02DC601F2
:101C40001995080F191FF1CFC801DF91CF911F918E
:101C50000F91FF90EF90DF90CF900895089590E05E
:101C600080E00895009769F0FC0101900020E9F7F9
:101C70003197AF01481B590BBC0185E794E00C94E8
:101C8000060E90E080E008950E948A1485ED80930E
:101C9000BC0080914E0390914F03A0915003B091EE
:101CA00051030796A11DB11D23E0B695A795979501
:101CB00087952A95D1F72091BC0024FD03C010928E
:101CC0009B03089540914E0350914F036091500340
:101CD00070915103452B462B472B69F30097A105C3
:101CE000B10541F02AE22A95F1F700C00197A10958
:101CF000B109E1CF80914D030C94F4071F920F922C
:101D00000FB60F9211242F933F938F939F93AF930E
:101D1000BF938091C4039091C503A091C603B09175
:101D2000C7033091C30323E0230F2D3758F50196E5
:101D3000A11DB11D2093C3038093C4039093C503D9
:101D4000A093C603B093C7038091C8039091C903C1
:101D5000A091CA03B091CB030196A11DB11D809340
:101D6000C8039093C903A093CA03B093CB03BF9158
:101D7000AF919F918F913F912F910F900FBE0F9038
:101D80001F90189526E8230F0296A11DB11DD2CFF2
:101D90001F920F920FB60F9211240BB60F922F9332
:101DA0003F934F935F936F937F938F939F93AF93E3
:101DB000BF93EF93FF938CEC93E00E94EF06FF91AB
:101DC000EF91BF91AF919F918F917F916F915F91B3
:101DD0004F913F912F910F900BBE0F900FBE0F9020
:101DE0001F9018951F920F920FB60F9211240BB6E9
:101DF0000F922F938F939F93EF93FF93E091DC03C8
:101E0000F091DD038081E091E203F091E30382FD34
:101E10001DC090818091E5038F5F8F732091E60351
:101E2000821741F0E091E503F0E0E453FC4F958F19
:101E30008093E503FF91EF919F918F912F910F90E8
:101E40000BBE0F900FBE0F901F9018958081F2CFA0
:101E50001F920F920FB60F9211240BB60F922F9371
:101E60003F934F935F936F937F938F939F93AF9322
:101E7000BF93EF93FF938091B900887F803609F478
:101E80004DC008F040C0883209F4A9C028F580315F
:101E900009F49DC0C8F4882309F4FBC0883009F414
:101EA00096C0FF91EF91BF91AF919F918F917F91DC
:101EB0006F915F914F913F912F910F900BBE0F90BB
:101EC0000FBE0F901F901895883109F488C080329A
:101ED00041F780939A0314C0803409F49DC040F404
:101EE0008033B9F38833E9F680939A0385ECB0C068
:101EF000803509F485C0883509F496C0883489F6A0
:101F00000E94460ECECF883909F48CC038F5883748
:101F100029F050F4883611F0803719F683E0809369
:101F20009B031092990357C0883809F47BC080390D
:101F300019F0803809F0B5CF80919903803208F00C
:101F400071C0E091990381E08E0F80939903809195
:101F5000BB00F0E0E758FC4F80833DC0803B39F088
:101F6000E0F4803A09F479C0883A09F09ACF84E025
:101F700080939B031092760310927503E091730394
:101F8000F091740319958091750381110FC081E060
:101F9000809375031092530309C0803C09F4A6CFC7
:101FA000883C09F4A3CF883B09F07BCFE09176030E
:101FB00081E08E0F80937603F0E0ED5AFC4F808134
:101FC0008093BB00909176038091750329C0809126
:101FD000C0038093BB0085EC8093BC0062CF9091DE
:101FE000BF038091BE03981758F5E091BF0381E0CD
:101FF0008E0F8093BF03F0E0E256FC4F8081E9CF63
:10200000E091BF0381E08E0F8093BF038091BB00FE
:10201000F0E0E256FC4F80839091BF038091BE03B5
:102020009817C8F285E8D8CFE091BF0381E08E0F02
:102030008093BF038091BB00F0E0E256FC4F8083A9
:1020400080919D0381115CCF81E080939C0384EAA1
:102050008093BC0010929B0324CF85EC8093BC003E
:1020600010929B0380919903803230F4E0919903A0
:10207000F0E0E758FC4F10826091990370E0E09126
:102080007703F091780389E793E01995109299030B
:1020900008CF10929A0334CFCF931092CF031092AF
:1020A000CE0388EE93E0A0E0B0E08093D00390935D
:1020B000D103A093D203B093D3032CE732E0309343
:1020C000CD032093CC0325EC30E03093D90320934B
:1020D000D80324EC30E03093DB032093DA0320ECC8
:1020E00030E03093DD032093DC0321EC30E03093CB
:1020F000DF032093DE0322EC30E03093E1032093F2
:10210000E00326EC30E03093E3032093E2031092E7
:10211000E5031092E6031092E7031092E803109291
:102120006C0410926B0480936D0490936E04A093E2
:102130006F04B09370048EE892E090936A048093E9
:10214000690488E490E00E946513FC019C01285B0F
:102150003F4F6AE070E04CEA52E012821382148230
:10216000158277836683108651834083118A729625
:10217000E217F30791F79093B0048093AF041092A5
:102180007804109277041092AD041092AE0480EAA5
:1021900092E0909376048093750410927A041092E2
:1021A000790410928E04109291041092850410927A
:1021B000860410928704109288048FEF80938F0416
:1021C00080939304E7E9F4E0CFEFC19384E0ED3A24
:1021D000F807D9F78BE799E090937E0480937D040C
:1021E00080E79AE09093800480937F0481ED9BE0E8
:1021F000909382048093810482E19DE09093840413
:102200008093830430E020E040E069E089E794E0D7
:102210000E947B09C093A204C093A304C093A404AA
:10222000CF910895789484B5826084BD84B581602F
:1022300084BD85B5826085BD85B5816085BD809191
:102240006E00816080936E00109281008091810009
:102250008260809381008091810081608093810001
:10226000809180008160809380008091B1008460C3
:102270008093B1008091B00081608093B000809124
:1022800091008260809391008091910081608093A1
:102290009100809190008160809390008091A100D6
:1022A00082608093A1008091A10081608093A10051
:1022B0008091A00081608093A000809121018260C4
:1022C000809321018091210181608093210180917F
:1022D000200181608093200180917A008460809346
:1022E0007A0080917A00826080937A0080917A00EF
:1022F000816080937A0080917A00806880937A0070
:102300001092C100E091DC03F091DD0382E0808354
:10231000E091D803F091D9031082E091DA03F091B3
:10232000DB038FEC80831092E403E091E003F091F3
:10233000E10386E08083E091DE03F091DF0380819A
:1023400080618083E091DE03F091DF03808188600B
:102350008083E091DE03F091DF03808180688083D9
:10236000E091DE03F091DF0380818F7D80834CE676
:10237000E42E42E0F42E10E000E059E1C52ED12C0D
:10238000C091AF04D091B004C00FD11FF701B1903C
:102390007F016B2D70E0E881F9810280F381E02DEF
:1023A00042E050E0CE011995B98A1886E881F9819A
:1023B0000190F081E02DCE011995882319F08885D0
:1023C000836088870E946F066A837B838C839D83EA
:1023D000E091AF04F091B004E00FF11FD782C68204
:1023E0000E5E1F4F0834110559F6E0917D04F091FF
:1023F0007E0430E020E040E06AE089E794E019954F
:1024000089E794E00E94E908E0917D04F0917E0460
:1024100030E020E040E06BE089E794E01995E0913E
:102420007D04F0917E0430E020E040E06BE089E73D
:1024300094E0199584E991E090938A04809389044B
:102440000E94CE0DBB24B39492E0A92E22E0922EDE
:1024500033E0C32ED12C10E000E0F12CE12CC09130
:10246000AF04D091B004CE0DDF1D88858B7F8887A7
:10247000E881F9810190F081E02DCE011995882E37
:10248000888586958170881609F43FC00E946F0682
:102490006A837B838C839D8388858A258887E091E6
:1024A000AF04F091B004EE0DFF1D808580FD21C0CA
:1024B00082FF1FC00115110509F061C010920002D2
:1024C00089E794E00E94E90880E00E9412051092DA
:1024D000AD041092AE04E091C103F091C203EE0F7F
:1024E000FF1FEE0FFF1FE059FD4F808191810E9479
:1024F000320E0F5F1F4FF2E1EF0EF11C0430110599
:1025000009F0ADCF0E947E07A6CF0E946F064A80D9
:102510005B806C807D80AB01BC0144195509660964
:1025200077098E819F81B0E0A0E0481759076A07BC
:102530007B0708F4B4CF88858170881609F4AFCF83
:102540000E946F066A837B838C839D8388858B259D
:10255000846088870E946F0649845A846B847C84D7
:1025600064197509860997096D877E878F87988B0F
:102570000E946F0669877A878B879C8790CF01308E
:10258000110599F580910002882329F18091C103FA
:10259000880F1092AD048093AE0480E20E94C90DB2
:1025A0008091C1039091C203019797FD05C090935C
:1025B000C2038093C10304C0D092C203C092C1037E
:1025C0008091C103880F1092AD048093AE048EE316
:1025D0000E94C90D8ECF82E00E9412051092AD04B8
:1025E0009092AE048AED92E082CF0230110531F56F
:1025F000809100028823B9F08091C103880F109266
:10260000AD048093AE0480E20E94C90D8091C103A5
:102610009091C2030196843091054CF21092C2034E
:102620001092C103CDCF84E00E9412051092AD0438
:1026300084E08093AE048FED92E059CF0E94CE0DDE
:1026400058CFA1E21A2EAA1BBB1BFD010DC0AA1F69
:10265000BB1FEE1FFF1FA217B307E407F50720F00B
:10266000A21BB30BE40BF50B661F771F881F991F86
:102670001A9469F760957095809590959B01AC01CF
:10268000BD01CF010895EE0FFF1F881F8BBF07907C
:10269000F691E02D19940E945613A59F900DB49FBA
:1026A000900DA49F800D911D11240895A29FB0014B
:1026B000B39FC001A39F700D811D1124911DB29F76
:1026C000700D811D1124911D08950F931F93CF93B9
:1026D000DF938230910510F482E090E0E091B30442
:1026E000F091B40430E020E0B0E0A0E0309799F43D
:1026F0002115310509F44AC0281B390B2430310556
:10270000D8F58A819B816115710589F1FB0193835D
:102710008283FE0111C040815181028113814817DB
:102720005907E0F04817590799F4109761F012968D
:102730000C93129713961C933296CF01DF91CF9191
:102740001F910F9108950093B3041093B404F4CF34
:102750002115310551F04217530738F0A901DB016B
:102760009A01BD01DF01F801C1CFEF01F9CF9093CC
:10277000B4048093B304CDCFFE01E20FF31F819325
:1027800091932250310939832883D7CF2091B10406
:102790003091B204232B41F42091030230910402C2
:1027A0003093B2042093B1042091010230910202CF
:1027B0002115310541F42DB73EB7409105025091E6
:1027C0000602241B350BE091B104F091B204E2172C
:1027D000F307A0F42E1B3F0B2817390778F0AC0144
:1027E0004E5F5F4F2417350748F04E0F5F1F509321
:1027F000B2044093B104819391939FCFF0E0E0E065
:102800009CCFCF93DF930097E9F0FC0132971382BE
:102810001282A091B304B091B404ED0130E020E045
:102820001097A1F420813181820F931F2091B10470
:102830003091B2042817390709F061C0F093B2044F
:10284000E093B104DF91CF910895EA01CE17DF073D
:10285000E8F54A815B819E0141155105B1F7E90117
:10286000FB83EA8349915991C40FD51FEC17FD07EB
:1028700061F4808191810296840F951FE90199830B
:102880008883828193819B838A83F0E0E0E01296C3
:102890008D919C9113970097B9F52D913C911197CB
:1028A000CD010296820F931F2091B1043091B204A2
:1028B0002817390739F6309751F51092B404109261
:1028C000B304B093B204A093B104BCCFD383C2834A
:1028D00040815181840F951FC817D90761F44E5F5D
:1028E0005F4F88819981480F591F518340838A81A6
:1028F0009B81938382832115310509F0B0CFF0933A
:10290000B404E093B3049ECFFD01DC01C0CF138279
:102910001282D7CF81E090E0F8940C948F14F89451
:02292000FFCFE7
:10292200010000B50480001815A015C019FF181584
:10293200A115C819FF1815AE19FF1815AF19FF1800
:1029420015AE15D5168015A8163F15D316001540DD
:10295200158D16141520160015A115C815DA1612B4
:10296200158116CF15D916F115DB1640152E15A4B3
:1029720015A619FF0001140A6464323200127A00AB
:10298200000428961008000080004000161718194D
:10299200B002BE02C802D4020000000011077B068A
:1029A200A8065E07D906B706CB06000000006E082F
:1029B20041082F0E17083A082708180800000000DF
:1029C200AA0D060E2F0E2E0E00000000A1089D0873
:1029D20054696D652073657474696E67730053681A
:1029E2006F772074696D650054782073657474691B
:1029F2006E677300416C61726D00646F776E007573
:022A0200700062
:00000001FF
